:08000000803102288731FC2F3A
:100F0400FF3021008C001F3023008C0021008D0154
:100F140023008D01013021009D00C0309E009B0103
:100F24009C01F201F301833021009D051D1407305B
:100F3400F1007D30F000F00B9D2FF10B9D2F21006F
:100F44009D149D18A32F1C08F301F3071B08F2013D
:100F5400F2077308803AF00080307002031DB42F4A
:100F6400AB3072020318B92F20008D01952F73083E
:100F7400803AF00081307002031DC22F5630720295
:100F84000318C62F0130F92F7308803AF00082301D
:100F94007002031DCF2F013072020318D32F0230C9
:100FA400F92F7308803AF00082307002031DDC2FA1
:100FB400AC3072020318E02F0330F92F7308803A23
:100FC400F00083307002031DE92F573072020318BA
:100FD400ED2F0430F92F7308803AF000843070024A
:100FE400031DF62F003072020318952F05302000E0
:0C0FF4008D00952F7E1020008731822F89
:020000040001F9
:04000E00E1FFFFDE31
:00000001FF
