:08000000803102288731FC2F3A
:100EB600F03021008C008D0123008C018D01200073
:100EC6008C018D01F601F701F801F9017708803AE6
:100ED600F000A7307002031D722F10307602031C3B
:100EE600762FF601F7017708F901F9077608F80178
:100EF600F807F301F401F501F2017908803AF000F0
:100F060083307002031D892FE8307802031C9C2F62
:100F16001830F807FC30F93D0130F0007008F20790
:100F2600802F9C30F807FF30F93D0130F000700843
:100F3600F3077908803AF00080307002031DA52F70
:100F460064307802031CB02F942FF630F807FF3078
:100F5600F93D0130F0007008F4077908803AF00096
:100F660080307002031DB92F0A3078020318A82FAB
:100F76007808F0007008F500013020008C00750834
:100F86008D004130F100EE30F000F00BC82FF10B70
:100F9600C82F0000023020008C0074088D004130FC
:100FA600F100EE30F000F00BD62FF10BD62F00003B
:100FB600043020008C0073088D004130F100EE30C3
:100FC600F000F00BE42FF10BE42F000008302000B6
:100FD6008C0072088D004130F100EE30F000F00B0D
:100FE600F22FF10BF22F00000130F6070030F73D2B
:0A0FF600692F7E10200087315B2F69
:020000040001F9
:04000E00E1FFFFDE31
:00000001FF
