:08000000803102288731FC2F3A
:100EC00020001C1508003830210099009A01980173
:100ED0000800013021009D0090309E009B019C0184
:100EE00008003C30260093007F3091009201CF3003
:100EF00025009E050800223020009C00FF309B004A
:100F00009A01911087316027080087316327873164
:100F10008731C527873187317B2787318731712713
:100F200087318731692708007108F3007008F200E3
:100F3000F336F20CF336F20C7208260091007008BA
:100F40000339F2000430F235890BA32F1308CF398F
:100F5000720493000800F3007308F200F20DF20D22
:100F600021001D087206833972069D001D1400328F
:100F70000032000021009D149D18BC2F1C08F101B7
:100F8000F1071B08F001F007080022008C01F73080
:100F900021008C00173023008C0024008C012200DB
:100FA0008D01FF3021008D00FE3023008D002400D4
:100FB0008D012100951722009D019E0108008731B7
:100FC00085278731873169278731873171278731B5
:100FD00000308731AB2787317108F501F5077008BC
:100FE000F401F4077508F101F1077408F001F00746
:100FF000873194278731E82F7E1020008731DF2F3B
:020000040001F9
:04000E00E1FFFFDE31
:00000001FF
