:08000000803102288731FC2F3A
:100E80006830210099009A019801080003102100A0
:100E90009D1C03140030093D080021001C08F101CD
:100EA000F1071B08F001F0070800013021009D0048
:100EB000C0309E009B019C0108008731402787318C
:100EC000873178278731873155270800F10071086D
:100ED000F000F00DF00D21001D087006833970063A
:100EE0009D001D1400320032000021009D140800F6
:100EF00022008C01FF3021008C001F3023008C0069
:100F000024008C0122008D01F03021008D00F03092
:100F100023008D0024008D012100951722009D01E2
:100F20009E01080087315D2787318731552787313A
:100F30000030873166278731873146278731003A6D
:100F400003199C2F87314D2787317108F401F4076D
:100F50007008F301F3077408803AF20080307202DF
:100F6000031DB42FAB3073020318B92F20008D017D
:100F7000952F7408803AF20081307202031DC22F4F
:100F8000563073020318C62F0130F92F7408803AC7
:100F9000F20082307202031DCF2F0130730203185A
:100FA000D32F0230F92F7408803AF2008230720297
:100FB000031DDC2FAC3073020318E02F0330F92F30
:100FC0007408803AF20083307202031DE92F573013
:100FD00073020318ED2F0430F92F7408803AF200E1
:100FE00084307202031DF62F003073020318952F10
:100FF000053020008D00952F7E1020008731922F24
:020000040001F9
:04000E00E1FFFFDE31
:00000001FF
