:08000000803102288731FA2F3C
:100E7C006830210099009A019801080003102100A4
:100E8C009D1C03140030093D080021001C08F101D1
:100E9C00F1071B08F001F0070800013021009D004C
:100EAC00C0309E009B019C01080087313E27873192
:100EBC00873176278731873153270800F100710875
:100ECC00F000F00DF00D21001D087006833970063E
:100EDC009D001D1400320032000021009D140800FA
:100EEC0022008C01FF3021008C001F3023008C006D
:100EFC0024008C0122008D01F03021008D00F03097
:100F0C0023008D0024008D012100951722009D01E6
:100F1C009E01080087315B27873187315327873142
:100F2C000030873164278731873144278731003A75
:100F3C0003199A2F87314B2787317108F401F40775
:100F4C007008F301F3077408803AF20080307202E3
:100F5C00031DB22FAB3073020318B72F20008D0185
:100F6C00932F7408803AF20081307202031DC02F57
:100F7C00563073020318C42F0130F72F7408803ACF
:100F8C00F20082307202031DCD2F01307302031860
:100F9C00D12F0230F72F7408803AF200823072029F
:100FAC00031DDA2FAC3073020318DE2F0330F72F3A
:100FBC007408803AF20083307202031DE72F573019
:100FCC0073020318EB2F0430F72F7408803AF200E9
:100FDC0084307202031DF42F003073020318932F18
:100FEC00053020008D00932FF301F4017E102000BA
:040FFC008731902F7A
:020000040001F9
:04000E00E1FFFFDE31
:00000001FF
